:020000040800F2
:10000000D01A00204501000891420008953F0008E1
:100010008D420008ED100008B964000800000000DF
:1000200000000000000000000000000099420008ED
:100030005911000800000000954200089D42000888
:100040005F0100085F0100085F0100085F01000810
:100050005F0100085F0100085F0100085F01000800
:100060005F0100085F0100085F0100085F010008F0
:10007000411100085F0100084D1100085F010008F0
:100080005F0100085F0100085F0100085F010008D0
:10009000416300085F0100085F0100085F0100087C
:1000A0005F0100085F0100085F0100085F010008B0
:1000B0005F0100085F0100085F0100085F010008A0
:1000C0005F0100085F0100085F0100085F01000890
:1000D0005F010008D14600085F010008DD46000806
:1000E0005F0100085F0100085F0100085F01000870
:1000F0005F0100085F0100085F0100085F01000860
:100100005F0100085F0100085F0100085F0100084F
:100110005F0100085F0100085F010008A5420008B8
:100120005F0100085F0100085F0100085F0100082F
:10013000DFF80CD000F00CFD00480047E564000833
:10014000D01A00200648804706480047FEE7FEE731
:10015000FEE7FEE7FEE7FEE7FEE7FEE7FEE7FEE777
:10016000A142000831010008D2B201E000F8012BE1
:10017000491EFBD270470022F6E710B513460A4627
:1001800004461946FFF7F0FF204610BD30B505467E
:100190002A460B4612F8010B13F8014B08B1A04296
:1001A000F8D01CB1002802D06D1CF1E7284630BD04
:1001B000421C10F8011B0029FBD1801A7047000077
:1001C0000FB400B58DB010A909900B9000914FF0BD
:1001D000FF300A9000200C900548069005480790D3
:1001E0006A4609A80F9900F0A3FB0DB05DF814FB57
:1001F0004D0900086B0900082DE9FF5F1D464FF00F
:10020000FF3BD5E9014691465F464FF00008A969DA
:100210007F1C01988847296A824688470028F6D1C2
:10022000BAF1FF3F0CD024F4C064002E19DD600643
:1002300014D5BAF12B0F09D0BAF12D0F0ED103E06E
:10024000584604B0BDE8F09F44F48064A9697F1C5F
:1002500001988847761E8246002E02DDBAF1300FE3
:1002600003D0B9F1000F26D032E0A969761E44F41C
:1002700000747F1C019888478246002E05DDBAF184
:10028000780F06D0BAF1580F03D0B9F1000F10D093
:100290001EE0B9F1000F02D0B9F1100F18D1A96911
:1002A000761E24F400747F1C019888478246102033
:1002B00002E0082000E00A20814609E008FB090866
:1002C000A969761E44F400747F1C01988847824611
:1002D000002E05DD4946504600F0BAF80028EDDA58
:1002E000E96901988847A00502D46FF00100A8E7EA
:1002F000E00725D1600613D5600502D5C8F10000DE
:1003000000E0404629680A1D2A600968220501D5D7
:10031000087015E0220701D5088011E008600FE0A1
:100320002868011D29600068210502D580F8008039
:1003300006E0210702D5A0F8008001E0C0F80080A7
:1003400038467EE72DE9FF5FD2E901A74FF00008AC
:10035000916999461446DDF838B0464601988847B9
:10036000054659EA0B0005D009E0A169761C019801
:1003700088470546216A284688470028F5D1681C29
:1003800003D05FEACA7005D015E04FF0FF3004B02B
:10039000BDE8F09F2068011D2160D0F800800AE0D0
:1003A0005FEACA7001D108F8015BA169761C7F1E63
:1003B000019888470546002F1ADD681C18D0B9F14E
:1003C000000F0DD0E81705EBD060421120F01F00A0
:1003D00059F822102A1A012090400142E0D107E08A
:1003E000BBF1000FDCD1216A284688470028D7D00E
:1003F000E16901988847BBF1000F07D1002E05DDA8
:100400005FEACA7002D1002188F80010A068B842E3
:1004100003DDBBF1000F03D017B16FF00100B6E7A9
:100420003046B4E730B50B460146002020220124B7
:1004300009E021FA02F59D4205D303FA02F5491BB2
:1004400004FA02F52844151EA2F10102F1DC30BDC8
:100450003A2800D2303820F02002412A01D3A2F1FC
:100460003700884201D34FF0FF3070472DE9FF4F2E
:100470001C4681B00021D4E9016791464FF0FF3559
:100480008A468846A1696D1C02988847216A83467E
:1004900088470028F6D1BBF1FF3F0CD026F4C06698
:1004A000002F1ADD700615D5BBF12B0F0AD0BBF15A
:1004B0002D0F0FD104E04FF0FF3005B0BDE8F08FF5
:1004C00046F48066A1696D1C029888477F1E8346AA
:1004D000002F02DDBBF1300F03D0B9F1000F2AD09D
:1004E00025E0A1696D1C46F400767F1E02988847BE
:1004F0008346002F05DDBBF1780F06D0BBF1580F06
:1005000003D0B9F1000F10D011E0B9F1000F02D003
:10051000B9F1100F0BD1A1696D1C26F400767F1E76
:10052000029888478346102000E0082081464FEA61
:10053000E970009017E00A20F8E74346AAFB092873
:1005400003FB0980DDF800C07F1E0AFB0C0112EBE3
:100550000B0A41EBEB78A16946F4007605F1010541
:10056000029888478346002F06DD49465846FFF724
:100570006FFF5FEA000BE0D5E16902988847B0059C
:1005800002D46FF0010098E7F00718D1700610D57B
:100590007005514605D50023D1EB030163EB08023A
:1005A00000E042462068031D23600068C0E9001295
:1005B00005E02068011D21600068C0E900A8284608
:1005C0007BE700002DE9FF4F087883B09946FF28AC
:1005D00005D0491C2D2804D00024002008E000206C
:1005E0000BE00124F9E700EB800003EB4000491C1D
:1005F0000B78FF2BF7D104B140420023029314780B
:1006000019461D462D2C01D02B2C04D1521C2D2C0B
:1006100013D000240294AA461478FF2C0FD00A2588
:10062000A3FB057801FB05814FF0000C03FB0C11C7
:10063000521CE3194AEB0101EEE70124EAE7814489
:1006400053EA010002D019F5C87F06DA03980021A9
:10065000C0E9001107B0BDE8F08F0025AE4E2F466F
:10066000DFF8B882184600F0A2FCCDE90001B9F12C
:10067000000002DAC9F1000400E004460023A74AA2
:100680001AEB030B42EB045A12E0E00707D02A46AC
:1006900033463846414600F079F9074688462A46EF
:1006A00033461046194600F071F905460E466410AF
:1006B000002CEAD1DDE90001B9F1000F5A4653469A
:1006C00006DA00F0D5F93A46434600F0D1F905E0E4
:1006D00000F05CF93A46434600F058F9029A0AB134
:1006E00081F00041039AC2E90001B3E72DE9FF4F11
:1006F0001F468DB0D7E901464FF0FF382E20454602
:100700004FF000090B90B9696D1C0E988847396A43
:10071000824688470028F6D1BAF1FF3F0AD024F478
:10072000D064002E11DDBAF12B0F08D0BAF12D0FD5
:100730000BD102E0404611B08DE744F48064B96902
:100740006D1C0E9888478246761E6946600501D565
:100750002D2000E02B208DF8000001F1010B0DF1A0
:10076000200809E0B9696D1C0E98884782460F98E9
:1007700044F40074761E0560002E02DDBAF1300FDD
:10078000F0D00B998A453ED144F0800406E00F99E1
:10079000681CA9F1010944F400740860B9696D1C72
:1007A000761E0E98884782463028F0D02BE00B99B1
:1007B0008A4505D1200603D444F08004761E18E053
:1007C000504606F00AF808B30DF11302761EAAF19E
:1007D000300044F40074934506D20BF8010B200658
:1007E00007D5A9F1010003E0200602D409F10100B8
:1007F0008146A00502D50F99681C0860B9696D1C77
:100800000E9888478246002ED1DC53E0002E51DD41
:10081000BAF1650F02D0BAF1450F4BD1A00549D509
:10082000B9696D1C24F44074761E0E988847824680
:10083000002E0CDD2B2804D0BAF12D0F07D144F483
:100840008074B9696D1C0E9888478246761EE00553
:1008500001D52D2100E02B2108F8011BCDF82C80BB
:1008600021E00DF12901761E44F4007488450CD274
:10087000AAF1300010F0FF0088F8000002D10B99B7
:10088000884509D908F1010806E0E00501D52448AA
:1008900001E042F20F708146B9696D1C0E988847DD
:1008A00082460F980560002E04DD504605F095FF46
:1008B0000028D6D1F9690E988847FF208BF80000F0
:1008C00088F800000020069007904B466A4608A969
:1008D00006A8FFF777FEA00502D46FF001002AE713
:1008E00014F0240F0AD0E00714D1DDE906123868AD
:1008F000031D3B600068C0E900120BE0DDE9060162
:1009000000F061FB0146E00704D13868021D3A603F
:100910000068016028460EE7000014400000F03F28
:10092000F1D8FFFF02681144137801601846704740
:10093000D1600449516104491162002111611146DD
:1009400000F042B925090008BF0B0008426842B117
:10095000016811F8013B23B1521EC0E9001218468C
:1009600070470121C160881E704742685AB1C36850
:10097000016843B983688B4205D0491E521CC0E907
:100980000012002070474FF0FF3070472DE9FE4FF6
:1009900081EA030404F0004421F0004100944FF088
:1009A000000B23F0004350EA01045ED052EA030436
:1009B0005BD0C3F30A54C1F30A552C44A4F2F334B8
:1009C0000194A0FB0254C1F3130141F48011C3F35D
:1009D000130343F4801301FB024400FB034E840A1B
:1009E000970A44EA815447EA8357A4FB07680295B3
:1009F0008D0A05FB07854FEA932C04FB0C54270551
:100A0000029D4FEA065847EA1637B5EB08056EEB2C
:100A1000070C870E920E47EA811742EA8312A7FB62
:100A20000201B6EB0B0164EB00042B0D43EA0C331F
:100A30005E1844EB1C50DA465146E7FB0201C5F351
:100A400013044FEA0B3343EA14534FEA0432019C78
:100A500043EA0603A4F10C040294009CCDE900B41F
:100A600000F057FA03B0BDE8F08F00200146F9E727
:100A70002DE9F04D81EA030404F0004B21F000451C
:100A800014464FF0000A23F0004150EA050220D03E
:100A900054EA01021DD0C5F30A570246C5F31303F9
:100AA000C1F31300C1F30A5640F4801543F48013D8
:100AB000A7EB0608101BD64608F2FD3873EB0500BD
:100AC00002D308F1010801E092185B41B8F1000F70
:100AD00003DA00200146BDE8F08D00204FF48011BC
:100AE000064684460EE0171B73EB050705D3121B61
:100AF00063EB050306434CEA010C49084FEA30005A
:100B000092185B4150EA0107EDD152EA030012D07E
:100B100082EA040083EA0501084305D0101BAB41BB
:100B200006D20122002306E000224FF0004302E03B
:100B30006FF0010253101AEB06004CEB085110EB5A
:100B40000A0041EB0B01BDE8F04D00F0D3B9000005
:100B50001CB509480090094801900546009C06E034
:100B6000E06840F0010394E8070098471034AC4275
:100B7000F6D3FFF7E1FA0000586C0008786C000823
:100B8000202A04DB203A00FA02F10020704791404D
:100B9000C2F1200320FA03F3194390407047202A42
:100BA00004DB203A21FA02F00021704721FA02F317
:100BB000D040C2F120029140084319467047C0B2AC
:100BC0004FF4F05100F01CBA2DE9F34F8BB04FF009
:100BD000000801F10C000C464FF0010B46460DF1E8
:100BE000080A01906269012101989047051E2DD0E5
:100BF000252D2CD0216A8847C0B162690121019856
:100C00009047216A88470028F7D1411E6269019800
:100C1000904700E0761CA1690B988847216A8847B5
:100C20000028F7D1E1690B988847DBE7A1690B98A9
:100C300088470746A84201D1761CD3E7E1690B98A3
:100C400088477F1C02D1B8F1000F6FD046E1002722
:100C500062693D463946019890472A2804D1626965
:100C60000121019890470125DFF8849262690121F2
:100C700001989047A0F130010A290AD24F45E5DCDE
:100C800007EB870100EB4107303FDFD445F010054B
:100C9000ECE7E90601D46FF000476C280AD04C2835
:100CA00014D0682815D06A280DD074281CD07A2852
:100CB0001AD01DE062690121019890476C2802D08A
:100CC00045F0040514E045F002050DE045F020056F
:100CD0000AE06269012101989047682802D045F036
:100CE000080505E045F40065626901210198904717
:100CF000C4E9015765283DD019DC58287AD00CDCAE
:100D0000452837D004DC252826D0412831D131E0D0
:100D100046282FD047282CD12CE05B2877D061289B
:100D200028D063287CD0642823D15AE0D0E06F28F3
:100D300048D008DC66281DD067281BD0692821D040
:100D40006E2816D127E0702845D0732868D0752802
:100D500047D078280DD14DE0A1690B98884705460A
:100D600025283FF469AFE1690B9888476D1C3FF473
:100D70006AAFB3E023466A466FF001000B99FFF7B4
:100D8000B5FC9EE045F040006060A80723464FF0A8
:100D9000000236D43EE0E8077FF447AF2068011D2B
:100DA00021600068290501D506701BE7290701D5D8
:100DB000068017E7A90703D5F117C0E9006111E71D
:100DC00006600FE745F040006060A80723464FF03B
:100DD000080216D41EE040F60E0125EA010060600C
:100DE00016E045F040006060A80723464FF00A0275
:100DF00007D40FE045F040006060A80708D52346FF
:100E000010226FF001000B99FFF730FB59E007E06B
:100E1000234610226FF001000B99FFF7EDF950E027
:100E20004FF000094F464B46632802D05B2806D09E
:100E300040E0E80601D40120A06001273AE06269A1
:100E40000121019890475E2805D14FF001096269A0
:100E5000494601989047216939B900210A4653460D
:100E600043F82120491C0829FADBB0B3216969B98C
:100E7000C11700EBD16253110AEB830122F01F026C
:100E8000821A01200B68904003430B6062690121C4
:100E9000019890475D28E8D1B9F1000F09D00020F2
:100EA000514651F82020D24341F82020401C082808
:100EB000F7DB02AB224600976FF001000B99FFF7BA
:100EC00041FA00280CDA401C08D1BBF1000F05D014
:100ED0004FF0FF300DB0BDE8F08FFFE74046F9E777
:100EE000E90701D108F1010806444FF0000B79E64B
:100EF000CCCCCC0C10B5141E73F1000408DA401CE5
:100F000041F1000192185B411A4301D120F0010028
:100F100010BD2DE9F04D92469B4611B1B1FA81F218
:100F200002E0B0FA80F220329046FFF729FE044634
:100F30000F4640EA0A0041EA0B0153465A4608436D
:100F400013D0114653EA010019D0C8F140025046AF
:100F5000FFF725FE05460E46504659464246FFF726
:100F60000FFE084305D0012004E020463946BDE8C5
:100F7000F08D0020054346EAE0762C4337430A987B
:100F80006305E40AA0EB08000022FD0A44EA475486
:100F90000A3002D500200146E9E701051019694130
:100FA000DDE9084500196941BDE8F04DA2E70EB53D
:100FB00040F2334202920022CDE900221346FFF7AD
:100FC000A8FF03B000BD01F0004330B421F00041A0
:100FD00050EA010206D00A0DA2F56072C1F31301B6
:100FE000002A02DC30BC00207047440F44EAC104F0
:100FF000C100E01830BC00EBC25000F015B8000092
:101000007F2801D9002208E0064A02EB5002C007FF
:10101000127800D1120902F00F020120904008401E
:1010200070470000E46900080029A8BF7047401C11
:10103000490008BF20F00100704710B4B0FA80FCEE
:1010400000FA0CF050EA010404BF10BC704749B12B
:10105000CCF1200421FA04F411FA0CF118BF01219B
:1010600021430843A3EB0C01CB1D4FEA00614FEA7B
:10107000102042BF002010BC704700EBC35010444A
:101080000029A4BF10BC7047401C490008BF20F0D5
:10109000010010BC704770B58C1810F8015B15F09A
:1010A000070301D110F8013B2A1106D110F8012BDA
:1010B00003E010F8016B01F8016B5B1EF9D12B07FF
:1010C00005D40023521E0DD401F8013BFAE710F8B5
:1010D000013BCB1A921C03E013F8015B01F8015BA2
:1010E000521EF9D5A142D8D3002070BDFEE7000002
:1010F000002070470020704710B540F6C854C2F277
:10110000000440F6C811C2F200012046002203F09C
:10111000E9FB40F2C851C2F20001204603F0DCFBBB
:10112000002010BD10B540F6C854C2F200040146BC
:10113000204603F0D1FB204603F0B0FB002010BD99
:1011400041F2D000C2F2000000F03CBA41F28C0043
:10115000C2F2000000F036BA7047000070B5C2B0AD
:101160004FF4FA6000F014FC40F2A014C2F2000444
:1011700041F27C40611CC2F20000012202F04EFEEE
:101180000020608020708BA005F0DAFA46F6F5208A
:10119000C0F600004FF47A7105F07EFA90B946F679
:1011A000F5258AA4C0F60005204605F009FC4FF499
:1011B0007A7000F0EDFB28464FF47A7105F06CFA76
:1011C0000028F1D046F63D40C0F6000005F0F8FBDF
:1011D00088A005F0B5FA8DA04FF47A7105F05CFA9D
:1011E00010B98EA005F0ECFB46F63D40C0F60000BD
:1011F00005F0E6FB4FF47A7000F0CAFB46F62530A6
:10120000C0F6000005F09CFA46F6E720C0F60000A4
:1012100041F2883105F040FAB0B946F6813446F61D
:10122000E725C0F60004C0F6000500BF204605F023
:10123000C7FB4FF47A7000F0ABFB284641F28831CF
:1012400005F02AFA0028F1D046F63D40C0F600002D
:1012500005F0B6FB46F65330C0F6000005F070FA14
:1012600002AC20464FF48071FEF785FF40F28016F5
:10127000C2F20006D6E9002346F69021C0F600012E
:10128000204605F087FA204641F2883105F004FA3D
:1012900090B946F6CF34C0F6000402AD204605F002
:1012A0008FFB4FF47A7000F073FB284641F28831CF
:1012B00005F0F2F90028F1D046F63D40C0F60000F6
:1012C00005F07EFB46F66A30C0F6000005F038FAFD
:1012D00002A84FF48071FEF74EFFD6E904235BB1FC
:1012E000B5694DB146F6A521C0F6000102A80095EA
:1012F00005F050FA07E000BF46F66921C0F600018C
:1013000002A805F047FA02A841F2883105F0C4F9B5
:1013100090B946F6A334C0F6000402AD204605F0AD
:101320004FFB40F6B83000F033FB284641F28831DD
:1013300005F0B2F90028F1D046F63D40C0F60000B5
:1013400005F03EFB46F63C30C0F6000005F0F8F92B
:1013500002AC20464FF48071FEF70DFFB268B389EE
:1013600046F6CD21C0F60001204605F013FA2046CE
:1013700041F2883105F090F990B946F6F634C0F69E
:10138000000402AD204605F01BFB40F6B83000F02B
:10139000FFFA284641F2883105F07EF90028F1D0A5
:1013A00046F63D40C0F6000005F00AFB012042B0C1
:1013B00070BD00BF313A5465737420415420636F8F
:1013C0006D6D616E642E2E2E202000004661696CCA
:1013D000656420746F2073656E6420415420636FD0
:1013E0006D6D616E642C207265747279696E672E02
:1013F0002E2E0000323A524553544F52452E2E2E77
:1014000020202020202020202020000041542B528A
:101410004553544F52450D0A000000004661696C67
:10142000656420746F2064697361626C6520656314
:10143000686F2C207265747279696E672E2E2E008B
:10144000EFF3108072B600BFFEE70000014690F88F
:101450002100022816D10868D1E90FC3026822F0E2
:101460000E020260026822F001020260012000FA0E
:1014700003F2CCF8042081F821000020002281F83A
:1014800020207047042088630120002281F820205A
:101490007047000090F82110022927D1026840F21D
:1014A000040C1368C4F2020C23F00E0313601368DB
:1014B0000CF17C018A4223F0010111601AD940F23B
:1014C0000841C4F202018A4250D040F21C41C4F2E9
:1014D00002018A4242D040F23041C4F202018A4203
:1014E00048D14FF48073CCF800345CE00421816370
:1014F000012070474321C4F202018A420EDD6B21B4
:10150000C4F202018A421BDC4421C4F202018A4275
:101510003ED05821C4F202018A4223E00821C4F2DD
:1015200002018A4232D01C21C4F202018A4237D021
:101530003021C4F202018A4214D14FF4807230E0AB
:101540006C21C4F202018A4226D08021C4F2020139
:101550008A4207D14FF0807223E000BF1023CCF8FD
:10156000003420E04FF480321BE000BF0123CCF8B0
:10157000003418E00CF588614FF480338A4208BFCC
:101580004FF48053CCF800340DE000BF012208E096
:101590004FF4805205E000BF4FF4801201E000BF1D
:1015A0001022CCF80020012180F82110416B00228C
:1015B000002980F8202004BF0020704780B58847AC
:1015C000002080BD10B5D0E90FE3D0F800C0DEF8F0
:1015D0000020DCF80010DA4054072DD511F0040487
:1015E0002AD0DCF80010890605D4DCF8001021F0C0
:1015F0000401CCF800100422C4F2020202F17C01C2
:101600008C4569D940F20841C4F202018C4500F0D2
:10161000B78040F21C41C4F202018C4500F0A88062
:1016200040F23041C4F202018C4540F0AD804FF4ED
:101630008061C2F80014F3E094072FD511F0020482
:101640002CD0DCF80010890608D4DCF8001021F05A
:101650000A01CCF80010012180F821100422C4F204
:10166000020202F17C018C454CD940F20841C4F2DF
:1016700002018C4500F0BC8040F21C41C4F2020122
:101680008C4500F0AD8040F23041C4F202018C453F
:1016900040F0B8804FF40071BCE000BF120740F189
:1016A000D78011F0080108BF10BDDCF8001021F050
:1016B0000E01CCF80010012101FA03F2CEF804204B
:1016C000816380F82110016B0022002980F820201E
:1016D00040F0A880BCE000BF4321C4F202018C4569
:1016E00026DD6B21C4F202018C4533DC4421C4F2B7
:1016F00002018C4500F07E805821C4F202018C4525
:101700003AE000BF4321C4F202018C4548DD6B2161
:10171000C4F202018C4555DC4421C4F202018C451F
:1017200000F086805821C4F202018C455CE000BFC5
:101730000821C4F202018C4554D01C21C4F20201DC
:101740008C456BD03021C4F202018C4514D14FF48A
:10175000806164E06C21C4F202018C454ED080218E
:10176000C4F202018C4507D14FF0806157E000BF01
:101770004021C2F8001453E04FF480214FE000BF35
:101780000421C2F800144BE002F588634FF4802175
:101790009C4508BF4FF48041C2F8001440E000BFF0
:1017A0000821C4F202018C4540D01C21C4F2020180
:1017B0008C4545D03021C4F202018C4514D14FF440
:1017C00000713EE06C21C4F202018C4534D08021CE
:1017D000C4F202018C4507D14FF0007131E000BF27
:1017E000202117E004211AE04FF4003129E000BF66
:1017F00002210FE04FF4804111E000BF4FF480015F
:101800000DE000BF02F588634FF400319C4508BF2E
:101810004FF40051C2F8001414E000BF40211160E1
:10182000C16AA9B1BDE81040084700BF022108E025
:101830004FF4005105E000BF4FF4001101E000BF7C
:1018400020211160816A0022002980F82020E9D13E
:1018500010BD0000014600284FF0010008BF70478E
:101860002DE9F04740F2000CC4F2020C0A684FF672
:10187000F8330CF5816ECBF6FD73724538BF03F576
:10188000806303EB020E4CF6CD43CCF6CC43AEFBAB
:10189000033E0CF580636FF00304D1E9019AD1F89F
:1018A0000C803CBF0023C4F2020304EA9E04C1E999
:1018B0000F34022381F82130136843F6F074A343F8
:1018C00001F1100743EA0903F0CF43EA0A0343EAB0
:1018D000080323432B4333433B43136000228A63B3
:1018E00081F8210081F820200020BDE8F0477047F2
:1018F00090F820C0BCF1010F04BF02207047F0B582
:101900004FF0010E80F820E090F821C0BCF1010FEB
:1019100026D14FF0020C80F821C04FF0000CC0F827
:1019200038C0D0E900C4C56AC66BDCF80070102C62
:1019300027F00107CCF80070006C0EFA00F0706020
:101940000846CCF8043004BF10460A46CCF808001C
:10195000CCF80C20DCF8000045B140F00E000DE0A2
:10196000002180F820100220F0BD00BF20F004000C
:10197000CCF80000DCF8000040F00A00CCF80000D1
:10198000DCF8000040F00100CCF800000020F0BDC1
:10199000B0B5044600F00AF9054640F20400C2F270
:1019A00000000078611C18BF044400BF00F0FEF87E
:1019B000401BA042FAD3B0BD2DE9F04F82B00E68B3
:1019C000002E00F0E980A0F1804241F6004540F28F
:1019D0000043A2F58432C4F201050624C4F20103D7
:1019E0004FEAB227A84208BF05244FF0000E4FF07F
:1019F00001080F254FF0000A4FF0000B052F38BFEC
:101A00004FEAB224009408E00E680AF1010A36FA9F
:101A10000AF20EF1040E00F0BF8008FA0AFC16EA82
:101A20000C09F1D04E684FF6FF72C1F210029642D7
:101A300012DC122E56D8DFE806F0350B4D4955550D
:101A4000555555555555555555555545510000BF9A
:101A5000D1F80CB046E000BF4FF6FF72C1F2210290
:101A600096420FDC0022C1F2110296421AD00022E7
:101A7000C1F21202964215D00022C1F22102964212
:101A800010D02FE00022C1F2220296420AD000229A
:101A9000C1F23102964205D00022C1F232029642D2
:101AA00020D100BF8A684AB1012A14BFC0F814C00F
:101AB000C0F810C04FF0080B14E000BF4FF0040B4B
:101AC00010E000BFCA6802F1040B0BE04FF0000BFE
:101AD00008E000BFCA6802F1080B03E0CA6802F11F
:101AE0000C0B00BF02467446B9F5807F24BF043258
:101AF000203C166805FA04F726EA07070BFA04F6F5
:101B000037431760CA79D2067FF57EAF41F21807D6
:101B1000C4F202073A684FF6084542F001023A6003
:101B20003A68CFF6FF7502F001020192019A2AF09D
:101B300003021A440F2457590EF00C06B440A74371
:101B4000009C04FA06F6374357514E6840F20C44A5
:101B5000F2029A6854BF22EA090242EA0902C4F278
:101B600001049A602268B70254BF22EA090242EADD
:101B7000090222605A68B70354BF22EA090242EA06
:101B800009025A600F251A68F70354BF22EA0902B6
:101B900042EA09021A6037E702B0BDE8F08F0000A0
:101BA000002A08BF090401617047000041F2C860C3
:101BB000C2F200000068704740F2040041F2C861C0
:101BC000C2F20000C2F2000100780A681044086006
:101BD0007047000080B542F20000C4F202000168C4
:101BE00041F010010160032000F0C2F80F2000F066
:101BF00005F800F05DF8002080BD0000B0B586B0AB
:101C000041F21C01C4F202010A68044642F02002BB
:101C10000A60096801A801F0200101910199694653
:101C200001F09AF9049D002D18BF012501F0B6F9C5
:101C30004DF68361A840C4F21B31A0FB01014FF0B7
:101C4000FF3000EB914141F2EC3041F20042C2F230
:101C50000000C4F2000240F2E7330025C0E9002191
:101C6000C0E902530561856101F0C4FB10B106B003
:101C7000B0BD00BF41F2EC30C2F2000001F0EAFB5F
:101C80000028F4D1372000F035F80F2C0CD837207D
:101C90002146002200F040F840F208010020C2F284
:101CA00000010C6006B0B0BD012006B0B0BD000060
:101CB00082B041F21800C4F202000168022241F031
:101CC00001010160016801F0010101910199416880
:101CD00041F080514160406800F0805000900098D1
:101CE0000420C4F20100016862F31A61016002B0CD
:101CF00070470000002848BF704700F01F01012214
:101D000002FA01F11C2202EAD0004EF20012CEF2D9
:101D1000000281507047000010B54EF60C5CCEF208
:101D2000000CDCF80030C3F3022E8EF00704042C04
:101D300028BF0424BEF103034FF0FF3E0EFA04F463
:101D400038BF0023A14399400EFA03F39A4311438D
:101D500000F00F0200F160430901043A03F5644307
:101D60006244002848BF02F10C03197010BD000046
:101D70004EF60C51CEF200010A684FF6FF031A40EE
:101D800060F30A2242F0806040F0FD700860704706
:101D900080B501F0070C0CEB8C0C00EBCC0C0CF1BB
:101DA000100C01EB810E090600EBCE0058BF00F5C8
:101DB000A87C5AB1ACF808301B0C01210A202CF881
:101DC000003000208CF80C1080BD00BF00210620E0
:101DD0002CF8003000208CF80C1080BD70470000FB
:101DE00001EB8102D0F8D43200EBC200426A1846FF
:101DF00002F0FEBF01EB8102D0F8D43200EBC2004A
:101E0000D0F86421184603F059B8000010B501F06D
:101E1000070E0A464FFA81FC0EEB8E0100EBC10360
:101E200003F5A871BCF1000F48BF03F1100190F851
:101E30009032D209012B4A7081F800E004BF0220E1
:101E400010BD0268012380F890320446104603F06A
:101E500069FD002084F8900210BD0000027901F0B5
:101E60000F03934284BF0120704710B501F00703B0
:101E700003EB830200EBC2024FFA81FC8E4602F5AF
:101E8000A871BCF1000F48BF02F110014FEADE1249
:101E90004A7090F890224FF0000C012A81F802C09D
:101EA0000B7004BF022010BD0268012380F890323D
:101EB0000446104603F0C6FD002084F8900210BDD1
:101EC00001F0070101EB810100EBC100D0F86C01CA
:101ED00070470000B0B501F007048C464FFA81FE50
:101EE00004EB840100EBC10505F5A871BEF1000FFC
:101EF00048BF05F110014FEADC154D700C700A6106
:101F0000022BCB7004BF00220A7190F89022012AA4
:101F100004BF0220B0BD0268012380F8903204465D
:101F2000104603F0BFFB002084F89002B0BD000013
:101F300010B501F0070C0CEB8C0100EBC10E006832
:101F40000EF5A8710024CEF86421CEF86831CEF8E1
:101F50006C418EF851418EF850C103F0CBFD00204A
:101F600010BD0000B0B5027901F0070494424FF0B3
:101F700001022BD801EB810300EBC3034FFA81FC74
:101F800003F5A87304EB8405C90900EBC505BCF192
:101F9000000F48BF05F11003597090F890129A7025
:101FA00001291C7004BF0220B0BD0168054680F8FD
:101FB00090220846194603F083FD24B9286805F5E8
:101FC000267103F03DFD002285F890221046B0BD39
:101FD00080B501F0070C0CEB8C0100EBC10101F89E
:101FE00010CF00684FF0010C01F1140781F824C0F4
:101FF0004FF0000E87E80C400B6281F801C003F03F
:1020000079FD002080BD00002DE9F04F83B004462B
:10201000006804F09BF901041ED4410500F1E4833B
:10202000410400F1F383810400F10884C10400F14C
:102030000F84010500F12684810500F17584C00537
:1020400040F1E0832068B0F8441021F48071A0F8DA
:10205000441003B0BDE8F08F2068B0F94410B1F12E
:10206000FF3F00F3CF8304F5A871019104F1100143
:1020700048F2C005029104F5267140F60F780091F0
:1020800023E000BFB0F8501094F8502100EB41015C
:1020900001EB0211B1F80C34B4F8562100996FF33A
:1020A0009F23C4F86C3104F055F92068018801EAD7
:1020B000080180310180204600F0B8FD2068B0F9A9
:1020C0004410B1F1FF3F00F39D83B0F8442012F0BB
:1020D0000F090DD030F929104FEA490BB1F1FF3F3C
:1020E0001FFA81FA30DD5FEA0A60E7D548E100BFF8
:1020F0000188D20662D401EA080101F5004101809D
:10210000B0F85010227C00EB410000EB0210B0F858
:102110000404616A6FF39F20E06208446062204615
:102120000021FFF75DFE607B0028C7D0A06A002871
:10213000C4D1607B216840F08000C0B2A1F84C009F
:1021400000206073BAE700BF30F81B1001EA0801F5
:10215000803120F81B10019A09EB890102EBC106BE
:10216000317B002900F07E80F178022940F08A80DE
:10217000B0F850303178B26900EB43035FEA4A4768
:1021800003EB011300F19680B3F80C7400236FF396
:102190009F27D21B38BF1A46B26140F2A1805FEA86
:1021A0004A6200F1AD8030F8212002EA08022A4399
:1021B00020F82120002F40F0A480C3E00A053FF55D
:1021C00061AF09B2B1F1FF3F3FF778AF018801EA93
:1021D000080180310180B0F8501094F8502100EBD4
:1021E000410101EB0211B1F80C346FF39F23C4F8E5
:1021F0006C3193B1D4F8641179B1B4F8562104F07C
:10220000A9F8D4F86401D4F86C110844C4F8640146
:1022100020460021FFF7EEFD206801880A053FF502
:102220004DAF01F44051B1F5405F3FF447AFB0F816
:10223000501000F20C42535A6FF39F235352D4F8BC
:1022400060313F2BC0F0E881DE068E5A4FEA53170B
:102250004FF0FF3508BF05EB531748F2C00546EABB
:10226000872362E2B0F85010327800EB410101EBB5
:102270000211B1F80C746FF39F27002F62D07169BF
:10228000F2885AE0317830F8212002EA08022A4325
:1022900020F8212030F82120B0F8503000EB011157
:1022A000520401EB430115D4B1F80C746FF39F276E
:1022B0003FBB47E0B3F8047400236FF39F27D21BA2
:1022C00038BF1A46B2611FD95FEA4A622BD497BB66
:1022D00038E000BFB1F804746FF39F275FBB31E0B3
:1022E00030F8212043F60F731A404CF28003A3F517
:1022F00000535A4020F821205FEA4A627FF553AF2D
:1023000007B37169728918E030F8212043F60F7322
:102310001A404CF28003A3F500535A4020F82120C4
:102320005FEA4A62D3D530F8212002EA08022A4344
:1023300020F8212037B1716932893B4604F00AF850
:1023400001E000BF0027F169D6E9050239443844AD
:10235000F161706112B13069B84209D93178204613
:10236000FFF748FD5FEA0A607FF5A8AE08E000BF0E
:102370002068314603F0BEFB5FEA0A607FF59EAE3F
:10238000206809EB890130F81B20029B03EBC10692
:1023900002EA080101F5004120F81B10F17801293B
:1023A00022D1317B00294FF00001B16100F02F8173
:1023B0005FEA4A6100F180807178012900F01481A0
:1023C000002940F02481B0F850103278084400EB26
:1023D0000210B0F80C146FF39F21A0F80C14B0F8A1
:1023E0000C1441F4004106E15FEACA511ED4B0F872
:1023F0005020317800EB420202EB0112B2F80424C3
:10240000B3696FF39F229B1A4FF0000738BF3B461A
:10241000B36140F2FD807169F369114471619918EB
:10242000F161314603F066FB48E600BFB0F850307A
:102430003178B5695FEA4A6200EB011754D407F2BC
:102440000C4E3EF8133000226FF39F23ED1A38BF75
:102450001546B5617CD95FEA4A4708D430F8217047
:102460004CF2800507EA08072F4320F8217096F800
:10247000241048F2C005012940F0A981D6E904C121
:10248000D6E9075719441D4467457161F56180F02D
:10249000FB80002F00F06081BC46326286F8242069
:1024A000737848F2C005012B40F0F780B0F8503047
:1024B0002EF803C07CE100BF7178012900F09E80F6
:1024C000002940F0A480B0F850103278084400EBA6
:1024D0000210B0F804146FF39F21A0F80414B0F8B0
:1024E000041441F4004190E007F2044939F8133034
:1024F00000226FF39F23ED1A38BF1546B5614DD901
:102500005FEA4A4708D530F821704CF2800507EAA7
:1025100008072F4320F8217096F8241048F2C005D0
:10252000012940F05481D6E90471D6E9075E1944C7
:102530001D44BE457161F56180F0CE804FF0000C06
:10254000BEF1000F86F824C040F0C9809E46C8E066
:10255000737848F2C005012B6AD0002B71D1B0F816
:1025600050303B44B3F804746FF39F27A3F804740E
:10257000B3F8047447F40047A3F80474B0F85000AB
:102580003EF800306FF39F232EF800303EF8003005
:1025900043F400432EF8003053E000BF737848F254
:1025A000C005012B54D0002B5BD1B0F8503039F866
:1025B00003506FF39F2529F8035039F8035045F471
:1025C000004529F80350B0F8500048F2C0053844DF
:1025D000B0F80C246FF39F22A0F80C24B0F80C2460
:1025E00042F400423BE000BFB0F85010327808449B
:1025F00000EB02100021A0F80C1408E0B0F8501015
:102600003278084400EB02100021A0F8041431785D
:102610002046FFF7E5FB51E5002B00F0858003F035
:102620000107565A07EB530346EA832382E000BFB3
:10263000B0F850303B44A3F80424B0F850002EF812
:1026400000202046FFF7CCFB5FEA4A4010D5BEE0F1
:10265000B0F8503029F80320B0F850003844A0F802
:102660000C242046FFF7BCFB5FEA4A4040F1AF80F4
:10267000206831784CF2800330F8212002EA080209
:102680001A4320F82120A2E0A7EB0C0333627378F1
:1026900048F2C005012B3FF409AF002B40F08880C1
:1026A000B0F85030BCF13F0F3EF803706FF39F2736
:1026B0002EF803705AD35FEACC654FEA5C173EF8F8
:1026C00003504FF0FF3208BF02EB5C1745EA872743
:1026D00048F2C00568E000BFAEEB070CBE46C6F886
:1026E00020C0737848F2C005012B2FD0002B69D190
:1026F000B0F85030BEF13F0F39F803706FF39F27E9
:1027000029F8037040D35FEACE654FEA5E1739F8C7
:1027100003504FF0FF3208BF02EB5E1745EA8727F0
:1027200048F2C0054AE000BF535A48F20007CFF60E
:10273000FF773B438B52018843F60F7211404CF2F6
:102740008002A2F5805251400180B7E4B0F85030C9
:1027500029F803E036E000BF002786F824709C4685
:10276000737848F2C005012B97D19FE6BCF1000FAA
:1027700018D00CF001073EF8035007EB5C0745EA60
:10278000872748F2C00511E0BEF1000F14D00EF00B
:10279000010739F8035007EB5E0745EA872748F23F
:1027A000C0050DE03EF8037047F400472EF80370B3
:1027B00072891FFA8CF308E039F8037047F4004778
:1027C00029F8037032891FFA8EF303F027FE206880
:1027D000317840F63F7330F821201A40A5F11003FC
:1027E0005A4020F8212069E42068B0F8441021F410
:1027F0008061A0F84410204600F0EAF994F89002B5
:1028000001280DD103B0BDE8F08F00BF2068B0F8FB
:10281000441021F48041A0F8441003B0BDE8F08FCB
:102820000120002584F8900265732068002103F0E0
:10283000EDFD84F8905203B0BDE8F08F2068B0F849
:10284000441021F40051A0F8441003B0BDE8F08F0B
:102850002068B0F8401021F00401A0F84010B0F852
:10286000401021F00801A0F84010204600F0C2F905
:102870002068B0F8441021F48051A0F8441003B04F
:10288000BDE8F08F2168B1F800C0B1F804E0B1F8FC
:1028900008808F890E8A8D8A088B8A8BB1F8403028
:1028A00043F00103A1F84030B1F8403023F00103B8
:1028B000A1F84030B1F844305B050CD4B1F8443095
:1028C0005B055CBFB1F844305FEA435303D4B1F811
:1028D00044305B05EED5B1F8443023F48063A1F8B1
:1028E0004430A1F800C0A1F804E0A1F808808F816D
:1028F0000E828D8208838A83B1F8400040F0080080
:10290000A1F84000B1F8440020F40060A1F84400B0
:10291000B1F8400040F004022046A1F8402003B086
:10292000BDE8F04F00F0A4B92168B1F8440020F4EC
:1029300000722046A1F8442003B0BDE8F04F00F03B
:102940005DB90000002804BF01207047F0B581B0D8
:10295000044690F8910228B9002084F8900220469D
:1029600000F014F9032084F89102206800216171BD
:1029700003F05CF894E80700237B02F0D1FF002805
:1029800040F0F2802068002103F03EFD002840F076
:10299000EB8094F804E0BEF1000F00F0DF800EF051
:1029A000030CBEF1040F4FF0000237D30EF0FC030E
:1029B000A4F1A00003210125CE1E80F8B0608E1E78
:1029C00080F8D8604E1E80F8006180F828110E1D36
:1029D000013180F8B15080F8B320C0E93022C0F84E
:1029E000C82080F8D95080F8DB20C0E93A22C0F82E
:1029F000F02080F8015180F80321C0E94422C0F89A
:102A0000182180F8295180F82B21C0E94E22C0F806
:102A10004021A03099423146CED1F21EBCF1000FC8
:102A20002ED004F1100002EB820100EBC10501235E
:102A300000F831200021BCF1010F6B70E970C5E98D
:102A40000411A9611CD0551C05EB850600EBC607D7
:102A5000BCF1020F7B7000F83650F970C7E9041121
:102A6000B9610DD0911C01EB810200EBC20301257D
:102A700000F8321000205D70D870C3E9040098613E
:102A8000BEF1000F6AD0BEF1040F4FF0000235D343
:102A90000EF0FC0003212346CF1E83F850718F1ED9
:102AA00083F878714F1E83F8C8110D1D013183F82A
:102AB000512183F85321C3E95822C3F8682183F8D0
:102AC000792183F87B21C3E96222C3F8902183F83E
:102AD000A12183F8A07183F8A321C3E96C22C3F874
:102AE000B82183F8C92183F8CB21C3E97622C3F842
:102AF000E021A03381422946CED1EA1EBCF1000F6D
:102B00002CD004F5A87002EB820300EBC307002170
:102B1000BCF1010F797000F83320F970C7E9041196
:102B2000B9611BD0531C03EB830700EBC706BCF154
:102B3000020F717000F83730F170C6E90411B1610D
:102B40000CD0911C01EB810200EBC20300275F70E7
:102B500000F83210DF70C3E904779F6194E8070042
:102B6000237B02F055FF28B1022084F89102012056
:102B700001B0F0BD00206073012084F8910220684C
:102B800002F044FF002001B0F0BD0000006845F6EF
:102B90000041C4F20001884218BF704780B582B07E
:102BA00041F21C00C4F202000168002241F400015D
:102BB00001600068002100F40000019001981420D9
:102BC000FFF7AAF8142002B0BDE88040FFF792B8E2
:102BD00010B504468079022818BFFEF731FCD4F8FE
:102BE000D402012102F06EFAD4F8D402BDE81040FC
:102BF00002F026BAD0F8D40202F04CBAD0F8D402CF
:102C000002F052BA90F89022012A04BF02207047C5
:102C100010B5012280F890224173026804461046E4
:102C200003F0F4FB002084F8900210BDD0F8D42209
:102C300000F52671104602F05BBA000090F8901281
:102C4000012904BF0220704710B50168012280F8F5
:102C500090220446084603F069FB20460121FFF755
:102C6000BDF8206802F0D0FE002084F8900210BD6C
:102C700010B50446D0F8D40202F08CFAA07A0028ED
:102C800008BF10BD4EF61050CEF20000016841F0B2
:102C90000601016010BD00002DE9F04182B004463C
:102CA000007841F21C06C007C4F202064AD0306820
:102CB0005FEAC00808D4306840F080503060306867
:102CC00000F080500190019847F20007C4F200071D
:102CD0003868C00512D4386840F480703860FEF758
:102CE00065FF05463868C00508D4FEF75FFF401B46
:102CF0006428F7D9032002B0BDE8F081706810F4B1
:102D0000407012D0616801F4407188420DD0706843
:102D100040F24042C4F24222012320F44071136089
:102D20000023C0071360716026D17068616820F4C9
:102D300040700843B8F1000F706003D4306820F091
:102D4000805030602068810707D556F8181CA268AB
:102D500021F44041114346F8181CC00607D556F827
:102D6000180C616920F48000084346F8180C002014
:102D700002B0BDE8F08100BFFEF718FF054641F242
:102D8000883700BF70688007CFD4FEF70FFF401B65
:102D9000B8424FF00300F5D9EAE70000002804BF6D
:102DA000012070472DE9F04381B042F20008C4F2DF
:102DB00002080446D8F800000D4600F007008842DB
:102DC0000CD2D8F8000020F007002843C8F8000013
:102DD000D8F8000000F00700A8426CD1206841F24A
:102DE00004098107C4F2020917D5410705D5D9F8AE
:102DF000001041F4E061C9F80010010705D5D9F8C9
:102E0000001041F46051C9F80010D9F80010A26810
:102E100021F0F0011143C9F80010C00742D1D8F8E1
:102E2000000000F00700A8420CD9D8F8000020F0FC
:102E300007002843C8F80000D8F8000000F0070099
:102E4000A84238D12068410707D5D9F80010E268B8
:102E500021F4E0611143C9F80010000708D5D9F842
:102E60000000216920F4605040EAC100C9F8000068
:102E7000D9F8002002F00C00082841F20020C0F22E
:102E80007A004DD146F63E23C2F38341C0F60003DB
:102E9000595CD20338D440F60010C0F23D004843DC
:102EA0003EE000BF606859F8041C022808D00128E1
:102EB00026D1890306D4012001B0BDE8F08300BF0C
:102EC0008901F8D5D9F8001021F003010843C9F8A9
:102ED0000000FEF76BFE064641F28837D9F8000085
:102EE000616800F00C00B0EB810F98D0FEF75EFE39
:102EF000801BB842F2D9032001B0BDE8F08300BFC7
:102F00008907D8D5DEE700BFD9F8002046F63C2374
:102F1000C2F34042C0F600039A5C4843B0FBF2F0B3
:102F2000D9F8001046F62422C1F30311C0F60002BE
:102F3000515C40F2280220FA01F140F20800C2F28E
:102F400000000068C2F200021160FEF757FE002088
:102F500001B0BDE8F08300000F22026041F20402DC
:102F6000C4F20202136803F003034360136803F022
:102F7000F0038360136803F4E063C36012684FF4E6
:102F8000E06303EAD202026142F20000C4F20200EE
:102F9000006800F0070008607047000040F2280059
:102FA00041F20401C2F20000C4F2020100680968A3
:102FB00046F63422C1F30221C0F60002515CC8403B
:102FC0007047000040F2280041F20401C2F2000004
:102FD000C4F202010068096846F63422C1F3C22136
:102FE000C0F60002515CC84070470000002804BFD2
:102FF000012070472DE9F04182B00446007841F28B
:103000000006C007C4F202060CD0706800F00C0085
:10301000042840F081803068800303D56068002870
:1030200000F04681207880071BD5706810F00C0FE7
:1030300009D0706800F00C00082840F087807068A4
:10304000C00300F183803068800703D52069012820
:1030500040F02E813068616920F0F80040EAC1003C
:1030600030602078000713D4207840072CD4E5691D
:10307000002D00F01881706800F00C00082840F066
:10308000A780012D40F00481012002B0BDE8F0814D
:10309000A069002800F084800020C4F242200121B1
:1030A000C0F88014FEF782FD054600BF706A8007F5
:1030B00000F1B280FEF77AFD401B0228F6D903200A
:1030C00002B0BDE8F08100BFF0695FEAC00808D433
:1030D000F06940F08050F061F06900F0805000909D
:1030E000009847F20007C4F200073868C00549D4C9
:1030F000386840F480703860FEF758FD054600BF20
:103100003868C0053ED4FEF751FD401B6428F7D94E
:10311000032002B0BDE8F081706800F00C000828C0
:1031200003D17068C0033FF576AF6168306800294D
:1031300000F00C81B1F5A02F00F00081B1F5803FC7
:1031400040F01A8140F480301CE100BF2069002863
:1031500040F20000C4F2422000F0888001210160AA
:10316000FEF724FD054600BF306880073FF572AFCB
:10317000FEF71CFD401B0228F6D9032002B0BDE873
:10318000F08100BFE168306A002900F09D800529C8
:1031900000F09280012940F0AF8040F00100B1E0E2
:1031A0000020C4F242200021C0F88014FEF7FEFC8B
:1031B000054600BF706A80077FF556AFFEF7F6FC44
:1031C000401B0228F6D9032002B0BDE8F08100BF01
:1031D0000027C4F2422700203866FEF7E7FC022DE4
:1031E00005460DD13068800140F1DE80FEF7DEFC3F
:1031F000401B02284FF00300F4D902B0BDE8F08173
:10320000306880014FD5FEF7D1FC401B02284FF0FB
:103210000300F5D9F1E700BF40F22800C2F2000038
:10322000006844F6D351C1F26201A0FB0101480AD3
:10323000019000BF00BF0198411E002801913FF49A
:1032400013AF00BF0198411E002801913FF40CAF5D
:1032500000BF0198411E002801913FF405AF00BF57
:103260000198411E00280191E4D1FDE60021016092
:10327000FEF79CFC054600BF306880077FF5F1AE85
:10328000FEF794FC401B02284FF00300F4D9B4E78A
:103290007068216A00F480328A4209D1616A00F4C0
:1032A0007010884204D1002002B0BDE8F08100BF58
:1032B000012002B0BDE8F08140F004003062306AC5
:1032C00040F001001EE000BF20F001003062306AD3
:1032D00020F004003062FEF769FC054641F28837B1
:1032E000306A800720D5FEF761FC401BB8424FF0E2
:1032F0000300F5D981E700BF20F001003062306A99
:1033000020F004003062FEF751FC054641F2883798
:10331000306A800708D4FEF749FC401BB842F7D951
:10332000032002B0BDE8F081B8F1000F3FF59FAE79
:10333000F06920F08050F06199E600BF40F48020F1
:103340003060306840F480301CE000BF20F48030F2
:103350003060306820F480203060FEF727FC05469E
:10336000306880037FF55EAEFEF720FC401B6428CA
:103370004FF00300F4D940E720F48030306030682B
:1033800020F480203060FEF711FC05463068800391
:103390003FF548AEFEF70AFC401B6428F6D903202F
:1033A00002B0BDE8F08100BF206AB0F5803F05D1D2
:1033B0007168A26821F40031114371607168626A1A
:1033C00021F4741111430843706001203866FEF740
:1033D000EDFB0446306880013FF565AFFEF7E6FB84
:1033E000001B02284FF00300F4D906E770470000E5
:1033F00070470000002804BF0120704710B5044644
:1034000090F83D0028B9002084F83C00204600F0E8
:103410001FF8022084F83D002068211D00F048FFBD
:10342000012084F8460084F83E0084F83F0084F8C8
:10343000400084F8410084F8420084F8430084F896
:10344000440084F8450084F83D00002010BD0000D1
:103450007047000090F83D1001291CBF0120704703
:10346000022180F83D10006840F6FF32C168C4F2C6
:103470000002904241F00101C1600FDCB0F1804FC9
:103480001ED040F20041C4F20001884218D040F63C
:103490000001C4F20001884212D018E040F6004159
:1034A000C4F2000188420BD043F20041C4F2010192
:1034B000884205D042F60041C4F20101884206D19B
:1034C000816801F00701062904BF002070470168E8
:1034D00041F00101016000207047000070470000CA
:1034E00070B504460068C5680669B10716D515F0C1
:1034F000020113D06FF0020101610121217780697F
:10350000800703D02046FFF7E9FF05E0204600F0E2
:103510008FF8204600F08EF800202077700719D52C
:1035200015F0040016D020686FF00401016102213B
:103530002177806910F4407F04D02046FFF7CEFF4A
:1035400006E000BF204600F073F8204600F072F855
:1035500000202077300717D515F0080014D0206818
:103560006FF00801016104212177C069800703D051
:103570002046FFF7B3FF05E0204600F059F820464B
:1035800000F058F800202077F00619D515F010004B
:1035900016D020686FF01001016108212177C06901
:1035A00010F4407F04D02046FFF798FF06E000BFEC
:1035B000204600F03DF8204600F03CF8002020773F
:1035C000F00718BF15F0010002D1300609D412E04F
:1035D00020686FF001010161204600F02DF83006EF
:1035E00009D515F0800006D020686FF080010161D8
:1035F0002046FFF7FBFE700609D515F0400006D007
:1036000020686FF040010161204600F01FF8B0060D
:1036100058BF70BD15F0200008D021686FF020025F
:1036200020460A61BDE87040FFF7E2BE70BD0000B1
:103630007047000070470000006841F20041C4F28A
:103640000001884218BF7047FEF7B6BA7047000005
:103650007047000070470000B0B582B001680A688A
:10366000CC684B6902F02F05202D04F0200505D110
:1036700025B102B0BDE8B04000F0AABF5FEA027C0D
:103680001EBF03F0010E04F4907313EB0E0341D13F
:10369000036BD50618D5012B16D114F0100313D0E7
:1036A000002201920A6801924A680192019A4969CE
:1036B00049064BD4818DC28DC38D002B18BF91421A
:1036C00040F0F48102B0B0BD13062DD514F0800394
:1036D0002AD090F84120212AF4D18268B2F5805F87
:1036E00003D10269002A00F06782026A531C036258
:1036F00012784A60C28C013A1304C284E2D1C868CD
:1037000020F08000C860C86840F04000C86002B087
:10371000B0BD00BFD30718BF14F4807340F0D08051
:10372000530700F1D380D8E05206CBD514F0400205
:10373000C8D0CA6822F04002CA60202180F8411037
:1037400002B0BDE8B04000F021BC00BFC16B0A6808
:10375000526893B2002BB5D0858DAB42B2D2C285F0
:103760008969202900F0A180016851E8031F0268DF
:1037700021F4807142E80313DBB1016851E8031FB3
:10378000026821F4807142E8031393B1016851E8A3
:10379000031F026821F4807142E803134BB10168F2
:1037A00051E8031F026821F4807142E80313002BE3
:1037B000DAD1016851E8051F026821F0010142E8F1
:1037C0000513C3B3016851E8051F026821F0010128
:1037D00042E805137BB3016851E8051F026821F038
:1037E000010142E8051333B3016851E8051F02687F
:1037F00021F0010142E80513002BDAD11BE000BFE4
:10380000016851E8051F026821F0400142E80513F4
:10381000DBB1016851E8051F026821F0400142E870
:10382000051393B1016851E8051F026821F04001BA
:1038300042E805134BB1016851E8051F026821F009
:10384000400142E80513002BDAD1202180F8421014
:1038500000210163016851E8031F026821F0100193
:1038600042E80313DBB1016851E8031F026821F04D
:10387000100142E8031393B1016851E8031F026885
:1038800021F0100142E803134BB1016851E8031F16
:10389000026821F0100142E80313002BDAD1C16B5A
:1038A00004460846FDF7D2FD204602214163818D82
:1038B000C28D891A89B202B0BDE8B040FFF7C8BE18
:1038C000436C43F001034364530706D5BEF1000F78
:1038D00003D0436C43F002034364930706D5BEF163
:1038E000000F03D0436C43F004034364BCF1000FAA
:1038F00006D55EEA050303D0436C43F00803436436
:10390000436C002B3FF4DEAE920605D525B104468C
:1039100000F05EFE216820464969426C01F04001DA
:1039200002F00802891800F0B98000BF016851E870
:10393000031F026821F4907142E80313BBB30168CE
:1039400051E8031F026821F4907142E8031373B336
:10395000016851E8031F026821F4907142E80313E3
:103960002BB3016851E8031F026821F4907142E80B
:103970000313002BDAD11AE0016851E8051F026831
:1039800021F0010142E80513DBB1016851E8051F90
:10399000026821F0010142E8051393B1016851E882
:1039A000051F026821F0010142E805134BB10168CF
:1039B00051E8051F026821F0010142E80513002BC0
:1039C000DAD1016B012924D1016851E8031F026893
:1039D00021F0100142E80313DBB1016851E8031F35
:1039E000026821F0100142E8031393B1016851E825
:1039F000031F026821F0100142E803134BB1016874
:103A000051E8031F026821F0100142E80313002B64
:103A1000DAD1202180F84210002101630168496950
:103A2000490640F1C380016851E8051F026821F092
:103A3000400142E80513DBB1016851E8051F026847
:103A400021F0400142E8051393B1016851E8051FD8
:103A5000026821F0400142E805134BB1016851E8CA
:103A6000051F026821F0400142E80513002BDAD15E
:103A7000C16B002900F09A8044F29132C0F6000236
:103A8000044608464A63FDF705FD00283FF41AAED8
:103A9000E06B416B02B0BDE8B04008470446FFF759
:103AA000D9FD0020606402B0B0BD00BF891A00BF1C
:103AB000026852E8032F036822F4907243E803255A
:103AC000BDB3026852E8032F036822F4907243E802
:103AD000032575B3026852E8032F036822F490723D
:103AE00043E803252DB3026852E8032F036822F44C
:103AF000907243E80325002DDAD11AE0026852E8FB
:103B0000052F036822F0010243E80525DDB10268B4
:103B100052E8052F036822F0010243E8052595B11C
:103B2000026852E8052F036822F0010243E80525E8
:103B30004DB1026852E8052F036822F0010243E804
:103B40000525002DDAD1202280F8422000220263D0
:103B5000026852E8032F036822F0100243E80325AD
:103B6000DDB1026852E8032F036822F0100243E837
:103B7000032595B1026852E8032F036822F0100272
:103B800043E803254DB1026852E8032F036822F091
:103B9000100243E80325002DDAD1022289B24263E4
:103BA00002B0BDE8B040FFF753BD00BF02B0BDE8B2
:103BB000B040FFF74FBD00BF026A32F8023B6FF31F
:103BC0005F234B60026295E5002804BF0120704727
:103BD00010B5044690F8410028B9002084F8400050
:103BE000204600F063F8242084F841002068D4E9DE
:103BF0000212C36823F40053C360036923F44053E3
:103C00001A430261D4E904231143C268194341F203
:103C10000C639A431143C1604169A26921F4407168
:103C2000114343F60002C4F201029042416103D005
:103C3000FFF7B4F902E000BFFFF7C4F9D4E90023AD
:103C4000192148439900B0FBF1F048F21F5CC5F21E
:103C5000EB1CA0FB0C314FF69C734909C0F6FF73B7
:103C600001FB0300322303EB0010A0FB0C03F02048
:103C700000EA531000EB0110C3F3431108449060B5
:103C80001069202120F490401061506920F02A0032
:103C90005061D06840F40050D0600020606484F827
:103CA000411084F84210606310BD0000F0B585B08B
:103CB0000446006844F60001C4F20001002788426F
:103CC0000497CDE90277019752D043F60001C4F280
:103CD0000101884240F09F8041F21800C4F20200C6
:103CE000016840F6000541F4804101600168C4F2BA
:103CF000010501F4804100910099016801AE41F095
:103D0000040101600068314600F004000090009852
:103D10004FF4007001900220029003200490284686
:103D2000FDF74AFE4FF48060019000272846314697
:103D3000CDE90277FDF740FE1C20C4F2020041F2FB
:103D40008C052830C2F200051021802285E883000E
:103D50002846C5E90327C5E90577EF61FDF77AFD38
:103D600000284FF0250618BFFDF76AFB49E000BFA9
:103D700041F21800C4F20200416801AE41F4802112
:103D80004160416801F4802100910099016841F08F
:103D9000080101600068314600F0080000900098BA
:103DA0004FF480600190022002900320049040F6BE
:103DB0000000C4F2010000F580652846FDF7FCFD17
:103DC0004FF40060CDE90107284631460397FDF71F
:103DD000F3FD41F2D0051C20C2F20005C4F202003E
:103DE0001021802285E883002846C5E90327C5E91C
:103DF0000577EF61FDF72EFD4FF0270608B1FDF7BF
:103E00001FFB304600210022A5636C62FDF784FF92
:103E10003046FDF76FFF05B0F0BD000090F842306E
:103E2000202B07D100294FF0010318BF002A05D12C
:103E30001846704702231846704700BF00230363EB
:103E4000816222218285C285436480F84210016923
:103E5000006819B1C16841F48071C160416941F0E5
:103E600001014161C16841F02001C16018467047FD
:103E700041F27C41C2F20001884218BF704740F213
:103E8000A011C2F200014A884878B2F5FF7F88BFCE
:103E90000022531C4B8041F2C843C2F200039854E5
:103EA0003AB11A4412F8012C0D2A02BF0A28012047
:103EB0000870002001F8010F41F27C40C2F20000BE
:103EC0000122FFF7ABBF000090F84130202B09D151
:103ED000944600294FF0010218BFBCF1000F05D134
:103EE0001046704702221046704700BF70B500228E
:103EF00021230162A0F824C0A0F826C0426480F803
:103F000041300468836B44F2195E44F2C95544F2AF
:103F10009D36C0F6000EC0F60005C0F60006C3E9E7
:103F20000AE5C3E90C62221D044618466346FDF704
:103F3000DFFC216820466FF040020A60016851E80A
:103F4000051F026841F0800142E80513DBB10168FA
:103F500051E8051F026841F0800142E8051393B162
:103F6000016851E8051F026841F0800142E805132D
:103F70004BB1016851E8051F026841F0800142E839
:103F80000513002BDAD1002070BD0000704700003F
:103F900070470000FEE7000070B5E4B040F2A015E5
:103FA000C2F20005287828B3698841F2C840C2F2FD
:103FB00000000026465410A1FCF7E8F8C0B1044602
:103FC00002F0FEFC0DF1080C0DF5C47E0EA163AAF3
:103FD00042AB2046CDE900ECFCF7F2F8042807D10B
:103FE00046F6FA20C0F6000042A902AA02F0A8FB99
:103FF0002E706E8064B070BD2B4D51545453554299
:10400000524543563A0000002B4D515454535542EB
:10401000524543563A25642C255B5E2C5D2C256465
:104020002C255B005D00000010B5ADF5047D04ACEF
:104030009C460346CDE9001207A220464FF40071CA
:10404000CDF808C002F08CFB204640F6B83102F0F3
:1040500023FB0DF5047D10BD41542B4D515454509C
:1040600055423D302C222573222C222573222C25EB
:10407000642C25640D0A000010B5C2B002AC8C4659
:10408000034607A220464FF48071CDF800C002F02D
:1040900067FB204640F6B83102F0FEFA42B010BD90
:1040A00041542B4D5154545355423D302C222573CD
:1040B000222C25640D0A000080B582B041F2140064
:1040C000C4F202000168002241F0010101600068B1
:1040D000002100F00100019001980C20FDF71CFE6A
:1040E0000C20FDF707FE0E2000210022FDF714FE34
:1040F0000E2002B0BDE88040FDF7FCBD2DE9F04187
:1041000086B0002641F21800CDE90466CDE90266CA
:10411000C4F20200016840F6000441F010010160A1
:104120000168C4F2010401F01001019101990168D4
:10413000002241F02001016001684FF4807801F015
:10414000200101910199016841F0040101600168B9
:1041500001F0040101910199016841F00801016039
:1041600000684FF4807100F008000190019820462B
:10417000FDF716FD02AD012720462946CDE902765E
:104180000497FDF719FC0220059020462946CDE949
:1041900002870496FDF710FC06B0BDE8F081000030
:1041A00080B541F2344043F60001C2F20000C4F28F
:1041B000010100234FF00C0C4FF4E13280E80E00B7
:1041C000C0E90333C0E905C3C361FFF7FDFC002864
:1041D00008BF80BDBDE88040FDF732B980B541F22F
:1041E0007C4044F60001C2F20000C4F2000100234A
:1041F0004FF00C0C4FF4E13280E80E00C0E90333BD
:10420000C0E905C3C361FFF7DFFC002808BF80BD1C
:10421000BDE88040FDF714B980B540F6C85040F2C3
:104220000C01C2F20000C2F20001002200F0A4FD65
:10423000002818BFFDF704F940F6C85040F22C01E1
:10424000C2F20000C2F2000100F0CCFF002818BF4B
:10425000FDF7F6F840F6C85040F25011C2F20000E7
:10426000C2F2000100F030FB002818BFFDF7E8F8AB
:1042700040F6C850C2F2000000F0CAFF002808BF94
:1042800080BDBDE88040FDF7DBB80000FEE7000020
:10429000FEE7000070470000704700007047000014
:1042A0007047000041F2EC30C2F20000FFF718B98D
:1042B00010B540F6FF320368C4F2000240F6004E2B
:1042C00043F2004C9042C4F2000EC4F2010C21DC17
:1042D000B0F1804F28D040F20044C4F20004A04264
:1042E00022D040F60004C4F20004A0421CD0904248
:1042F00020DCB0F1804F27D040F20042C4F200022F
:10430000904221D040F60002C4F2000290421BD03D
:104310001EE000BF704507D0604505D042F600445E
:10432000C4F20104A042E2D14C6823F0700323439D
:104330009042DEDD704507D0604505D042F6004270
:10434000C4F20102904203D1CA6823F440731343BC
:104350004C6923F08002D1F800E08B68224360456D
:104360000260C362C0F828E005D042F60042C4F201
:104370000102904201D10969016301214161016992
:10438000C90708BF10BD016921F00101016110BD1D
:10439000406A0021C185C184FFF75CB9406A0168A9
:1043A0004A6990F84130212B2DD112F080022AD099
:1043B0000021C184016851E8031F026821F0C00197
:1043C00042E80313DBB1016851E8031F026821F0E2
:1043D000C00142E8031393B1016851E8031F02686A
:1043E00021F0C00142E803134BB1016851E8031FFB
:1043F000026821F0C00142E80313002BDAD120212A
:1044000080F841100168496990F84220222A40F062
:104410007D8011F0400179D00021C185016851E80B
:10442000031F026821F4907142E80313BBB30168D3
:1044300051E8031F026821F4907142E8031373B33B
:10444000016851E8031F026821F4907142E80313E8
:104450002BB3016851E8031F026821F4907142E810
:104460000313002BDAD11AE0016851E8051F026836
:1044700021F0010142E80513DBB1016851E8051F95
:10448000026821F0010142E8051393B1016851E887
:10449000051F026821F0010142E805134BB10168D4
:1044A00051E8051F026821F0010142E80513002BC5
:1044B000DAD1016B012924D1016851E8031F026898
:1044C00021F0100142E80313DBB1016851E8031F3A
:1044D000026821F0100142E8031393B1016851E82A
:1044E000031F026821F0100142E803134BB1016879
:1044F00051E8031F026821F0100142E80313002B6A
:10450000DAD1202180F8421000210163416C41F092
:1045100010014164FFF79EB80168406A0968890686
:1045200048BFFFF733BD0021C18400BF016851E8D7
:10453000051F026821F0800142E8051383B301687A
:1045400051E8051F026821F0800142E805133BB3E2
:10455000016851E8051F026821F0800142E8051357
:10456000F3B1016851E8051F026821F0800142E8BB
:104570000513002BDAD113E0016851E8031F02682C
:1045800041F0400142E80313002B08BF7047016867
:1045900051E8031F026841F0400142E8031393B160
:1045A000016851E8031F026841F0400142E803132B
:1045B0004BB1016851E8031F026841F0400142E835
:1045C0000313002BD8D17047406AFFF7E1BC00000D
:1045D00081B090F84210222921D183680246B3F5B8
:1045E000805F09D152F8281F52F8183C002B63D085
:1045F00003685B680AE000BF52F8281F13B903691B
:10460000002BF5D003685B6803F07F030B70116823
:1046100001311160C18D01390A04C18502D001B098
:10462000704700BF0168CA6822F02002CA60CA68E9
:1046300022F48072CA604A6922F001024A61202194
:1046400080F8421000214163026B012A3CD10163D2
:10465000016851E8031F026821F0100142E80313CA
:10466000DBB1016851E8031F026821F0100142E844
:10467000031393B1016851E8031F026821F0100190
:1046800042E803134BB1016851E8031F026821F0AF
:10469000100142E80313002BDAD101680A68D20640
:1046A00006D5002200920A6800924968009100999C
:1046B000818D01B0FEF7CCBF026852686FF35F22B4
:1046C00021F8022B8162A5E701B0FFF7D1BB000002
:1046D00041F23440C2F20000FEF7BEBF41F27C401E
:1046E000C2F20000FEF7B8BFD0F8B822002A04BF1B
:1046F0000220704710B501EB810300EB830C5CF8DE
:104700001C3F63B1D0F8C0E201EB81040EEBC4049E
:10471000D4F820E0B3FBFEF404FB1E3323B10020E9
:10472000C2F8140210BD00BF00220023CCF8002004
:1047300000F03AFD002010BDB0B5D0F8B8520446E4
:1047400000F0FAFBD4F8B812C5F80C0251B1D4F855
:10475000BC0205F50371C268D5F804029047002039
:10476000B0BD00BF0220B0BDB0B58121044600F04D
:104770002DFB002520460121E56200F027FB2046A5
:104780008221C4F86C5100F021FBD4F8B8022564F2
:1047900048B1D4F8BC0240688047D4F8B80200F0B1
:1047A00079FFC4F8B8520020B0BD0000D0F8BC12A8
:1047B00081B110B5D0F8B84294F80002FF2807D0B4
:1047C0008B6894F8012221469847FF2084F8000264
:1047D000BDE8104000207047014640F2EC000A227C
:1047E000C2F200000A807047014640F26400432292
:1047F000C2F200000A807047014640F2A80043223E
:10480000C2F200000A807047014640F2F8004322DD
:10481000C2F200000A807047F0B581B00546007C06
:104820004027002808BF4FF4007728468121022244
:104830003B46402400F0DEFB0126284601210222EF
:104840003B46EE6200F0D6FB284682210322082375
:10485000C5F86C6100F0CEFB4FF407702E6400F0D9
:104860001BFFC5F8B802A8B10746D5F8BC0200681E
:1048700080470026C7F81462C7F81862287CD7F86A
:104880000422002808BF4FF4007428460121234663
:1048900000F0C4FB304601B0F0BD0000D0F8B81203
:1048A000002904BF0220704780B590F810C0D1F8ED
:1048B000042240230121BCF1000F08BF4FF4007314
:1048C00000F0ACFB002080BD00290EBF0220C0F824
:1048D000BC12002070470000D0F8B8220020C2F8B7
:1048E00004127047D0F8B8320020C3F80812C3F899
:1048F00010227047F0B581B091F90030D0F8B8427D
:10490000002513F060028DF80350ADF8005011D06F
:10491000202A3BD1CA88FAB1B3F1FF3F3CDD497888
:1049200084F8012284F80012214600F06BF8002080
:1049300001B0F0BD4A780B2A24D00A2A16D02ABB2F
:1049400090F89C22032A21D16946022200F074F8D3
:10495000002001B0F0BD00BFD0F8BC020022836887
:1049600048789847002001B0F0BD00BF90F89C2225
:10497000032A0BD10DF10301012200F05DF80020A4
:1049800001B0F0BD90F89C22032AD0D000F02EF8A0
:10499000022001B0F0BD00BFD0F8BC3206469D68D1
:1049A0004B780F4618462146A847FA8830462146DC
:1049B00000F042F8002001B0F0BD000080B5D0F852
:1049C000B42252689047002080BD000080B5134695
:1049D0000A46002100F022FB002080BD80B513466E
:1049E0000A46002100F0E0FB002080BD10B58021C8
:1049F000044600F0ABFB20460021BDE8104000F06B
:104A0000A5BB000080B513460A460321C0F89412E6
:104A10000021C0E9573300F001FB002080BD0000F9
:104A200080B50521C0F8941200210022002300F077
:104A3000F5FA002080BD000080B513460A46022129
:104A4000C0F894120021C0E9073300F0ADFB00204C
:104A500080BD000080B50421C0F89412002100221E
:104A6000002300F0A1FB002080BD000010B540F243
:104A7000A814C2F200040A4602A0214600F012F96E
:104A8000204610BD43444320436F6E6669670000B3
:104A900040F23C101222C2F200000A80704700006F
:104AA00010B540F2A814C2F200040A4602A0214642
:104AB00000F0F8F8204610BD43444320496E746569
:104AC000726661636500000040F260100422C2F269
:104AD00000000A807047000010B540F2A814C2F22E
:104AE00000040A4602A0214600F0DCF8204610BD72
:104AF00053544D6963726F656C656374726F6E6950
:104B00006373000010B540F2A814C2F200040A4614
:104B100002A0214600F0C6F8204610BD53544D3384
:104B200032205669727475616C20436F6D506F72DC
:104B3000740000004FF2E870C1F6FF7002688368ED
:104B40004FF01A0C9B18A1F800C000F0A680B0B579
:104B50004FF0370C1A0F0CEB13714068B3F1204F74
:104B600038BF02F1300140F26412C2F200029170CB
:104B700019014FF0000E0CEB117582F803E0C3F33E
:104B80000364B1F1204F38BF04F1300519021571EB
:104B90000CEB117582F805E0C3F30354B1F1204F1B
:104BA00038BF04F13005190395710CEB117582F8CB
:104BB00007E0C3F30344B1F1204F38BF04F13005DF
:104BC000190415720CEB117582F809E0C3F3033474
:104BD000B1F1204F38BF04F13005190595720CEB87
:104BE000117582F80BE0C3F30324B1F1204F38BFF5
:104BF00004F1300519061573C3F303140CEB11759A
:104C0000B1F1204F4FEA037103F00F0382F80DE07A
:104C100038BF04F1300503F13704957382F80FE0D3
:104C2000B1F1204F38BF03F13004010F0CEB1073CA
:104C3000147482F811E0B0F1204F38BF01F1300355
:104C400001010CEB1174937482F813E0C0F3036359
:104C5000B1F1204F38BF03F1300401021475C0F3E5
:104C600003530CEB1174B1F1204F4FEA003182F87D
:104C700015E038BF03F130040CEB1173947582F822
:104C800017E0C0F30340B1F1204F38BF00F130030B
:104C9000137682F819E0BDE8B04040F26410C2F229
:104CA00000007047002808BF704710B50378ABB10B
:104CB00000F1020E4FF0000C1EF8013C93B19EF87B
:104CC00000309BB19EF80130A3B19EF802300CF188
:104CD000040C002B0EF1040EEED10DE04FF0000C91
:104CE0000AE000BF4CF0010C06E000BF4CF0020CE3
:104CF00002E000BF4CF0030C5FFA8CFC022303EBD4
:104D00004C03138003220B704A7090F800E0BEF150
:104D1000000F2DD0023002224FF0000CD3B2CC187D
:104D200001F803E084F801C010F8013C03B3941CBF
:104D3000E4B201EB040E0B558EF801C00378BBB151
:104D4000141DE4B201EB040E0B558EF801C043783C
:104D500073B1941DE4B201EB040E0B558EF801C043
:104D600090F802E00832BEF1000F00F10400D5D146
:104D7000BDE8104070470000002804BF02207047C3
:104D8000D0F8B432002B1CBF0023C0F8B432002985
:104D900018BFC0F8B01280B5012180F89C120270D3
:104DA00000F0CEF8002080BD80B5D0F8C002FDF73D
:104DB00055F840F200220223C100C0F2012204286B
:104DC00038BF22FA01F3D8B280BD000080B5D0F818
:104DD000C002FDF71BF840F200220223C100C0F21E
:104DE0000122042838BF22FA01F3D8B280BD0000A6
:104DF000B0B569B1D0F8B42252693AB190F89C329A
:104E0000032B03D1904700210846B0BD0220B0BD5E
:104E1000D0F89412002918BF04290FD1802104462C
:104E200000F094F9204690F8A01201294FF00001FB
:104E3000EAD180F8A0120846B0BD00BF0229F2D125
:104E4000D0E908318B420FD9591A8BB20162114651
:104E50001A460446FFF7C2FD204600210022002327
:104E600000F0DCF8DEE700BFC2698A4212D3B2FB71
:104E7000F1F303FB112169B9D0F898128A4209D2E3
:104E80000021002204460025FFF7A8FDC4F898522F
:104E9000E2E700BFD0F8B412C96831B190F89C22A3
:104EA000032A02D10446884720468021044600F0A8
:104EB0004DF92046FFF7B4FDB4E7000010B559B135
:104EC000D0F8B42292692AB190F89C32032B01D118
:104ED00090472EE0022010BDD0F89412002405293E
:104EE00012D0032926D1D0E958318B4214D95B1A4C
:104EF000C0F860318B4238BF19468BB211461A4652
:104F0000FFF764FD15E000BF0021C0F8944200F0F7
:104F10001DF9204610BD00BFD0F8B412096931B1A7
:104F200090F89C22032A02D1044688472046FFF7C6
:104F300091FD0024204610BDD0F8C002FCF7C0BF90
:104F400010B5044641F2141045F60041C2F20000CB
:104F5000C4F2000101600821017102218171002168
:104F6000C0F8D442C4F8C00241810173FDF7EAFCE5
:104F7000002818BFFCF764FAD4F8C0020021002210
:104F80001823FCF705FFD4F8C00280210022582323
:104F9000FCF7FEFED4F8C00281210022C023FCF7FA
:104FA000F7FED4F8C002012100224FF48873FCF709
:104FB000EFFED4F8C002822100224FF48073FCF788
:104FC000E7FE002010BD0000D0F8C00201F07F0312
:104FD0004AB203EB830301EB810100EBC30300EB57
:104FE000C10000F5A970002A48BF03F11200007843
:104FF0007047000080B59446D0F8C0021A46634658
:10500000FCF768FF40F200220223C100C0F2012237
:10501000042838BF22FA01F3D8B280BD80B5D0F899
:10502000C002FCF785FF40F200220223C100C0F25B
:105030000122042838BF22FA01F3D8B280BD000053
:10504000F0B581B00021002240230446002540260F
:10505000FFF7D0FF01272046802100224023C4F81B
:105060005871C4F86461FFF7C5FFD4F8B812A7619E
:10507000666284F89C72C4F894526560C4F8A452C5
:1050800029B1D4F8B41220464A6800219047002084
:1050900001B0F0BD90F89C12042904BF90F89D1255
:1050A00080F89C120020704790F89C12032907D1C9
:1050B000D0F8B412C96919B180B58847BDE88040FD
:1050C00000207047024600201174704780B5D0F868
:1050D000C002FDF797FD40F200220223C100C0F29A
:1050E0000122042838BF22FA01F3D8B280BD0000A3
:1050F000B0B500F52A740546204600F067F895F82B
:10510000A8122846B5F8AE5201F01F020123022A68
:10511000C0E9A5350ED0012A06D08AB9214600F093
:105120007DF80020B0BD00BF214600F083FA0020CA
:10513000B0BD00BF214600F0E5F90020B0BD00BFC2
:1051400001F0800100F002F80020B0BD80B5D0F879
:10515000C002FCF707FF40F200220223C100C0F2A8
:105160000122042838BF22FA01F3D8B280BD000022
:1051700080B5D0F8C002FDF761FD40F200220223A5
:10518000C100C0F20122042838BF22FA01F3D8B2CC
:1051900080BD0000014690F89C02042281F89D0227
:1051A000002081F89C22704780B5D0F8C002FCF73F
:1051B0000FFF40F200220223C100C0F201220428A6
:1051C00038BF22FA01F3D8B280BD00000A7802701D
:1051D0004A7842704A8842808A888280C988C18021
:1051E0007047000000290EBF0220C0F8B412002052
:1051F00070470000D0F8B422002A04BF0220704794
:1052000080B512689047002818BF0120400080BD7B
:1052100080B5FFF7ADFF002080BD000070B582B003
:105220000A7812F060020BD0402A02D0202A40F007
:105230005D81D0F8B42292689047002002B070BD22
:105240004A78092A00F25281DFE812F00A0034009D
:1052500050015A00500166008A00500124004000AD
:1052600090F89C22013A022A00F24081C988022962
:1052700040F03C81D0F8A4120322002908BF01228B
:10528000014641F80C2F0222FFF7D6FB002002B0A6
:1052900070BD00BFC988012940F0288190F89C1298
:1052A0004A1E022A80F074800022014641F8082F2D
:1052B00072E000BF90F89C22013A022A00F21681A7
:1052C00049880129B9D100211EE000BF4A8840F277
:1052D000A416D1B2C2F200060229327080F0068113
:1052E00090F89C22032A5DD0022A40F08380002996
:1052F00000F0C58003220446416080F89C22B7E09C
:105300004988012999D10121C0F8A412FFF7A2FB15
:10531000002002B070BD00BF8A88002A40F0E680FD
:10532000CA88002A40F0E2804D887F2D00F2DE809E
:1053300090F89C12032900F0D980E9B280F89E52BF
:105340000446FFF7C3FE20462646FFF783FB002DE9
:105350000CBF0120022086F89C02002002B070BD24
:105360004A884FF0FF3303EB12230026062BADF8DB
:10537000066000F2BB80DFE803F0052D1FB9B94DD0
:10538000590000BF0D46D0F8B0120A6891E000BF86
:10539000032940F0AB80011D0122FFF74DFB0020E7
:1053A00002B070BD002951D04168012958D1FFF7E2
:1053B00051FB002002B070BDD2B2052A00F29680E7
:1053C000DFE802F0046E666A627200BFD0F8B022B5
:1053D00052686CE00D46017C0446D0F8B402002906
:1053E0000CBF816AC16A0DF10600884701460220A0
:1053F00029E000BF80210446FFF7A8FE20460021D7
:10540000FFF7A4FE31782046FFF7D8FA002002B05B
:1054100070BD00BF027C002A68D10446D0F8B402F7
:105420000D46416B0DF10600884747E0027C002ADB
:105430005CD10446D0F8B4020D46016B0DF10600B4
:10544000884701460720487039E000BF022280F8F3
:105450009C22002242600446FFF7B0FA0EE000BF33
:10546000C9B20546FFF7AAFA31782C46696028468A
:10547000FFF7C0FE022801D1204638E02046FFF7A2
:10548000E9FA002002B070BDD0F8B02252690EE0F7
:10549000D0F8B022D2680AE0D0F8B022126906E053
:1054A000D0F8B022926802E0D0F8B0229269EAB156
:1054B0000D460446007C0DF1060190470146BDF8FB
:1054C000060048B1EA883AB1904238BF0246204609
:1054D000ADF80620FFF7B0FAE88800287FF4ADAEFB
:1054E0002046FFF7B7FA002002B070BD04468021C5
:1054F000FFF72CFE20460021FFF728FE002002B017
:1055000070BD0000B0B50A7812F060020AD0402ADF
:1055100001D0202A39D1D0F8B422926890470020D7
:10552000B0BD00BF4B780A4609792BB3012B11D0CF
:10553000032B2AD190F89C32032B0FD15388C3BB85
:1055400011F07F0335D0D2889ABB0446FFF7FEFDE9
:105550002EE000BF90F89C32032B21D0022B14D1F7
:105560004A0612D00446FFF7F1FD20468021FFF7DE
:10557000EDFD0020B0BD00BF90F89C22032A1DD095
:10558000022A08BF5FEA416240D080210446FFF74B
:10559000DDFD20460021FFF7D9FD0020B0BD00BF92
:1055A0005288002A44D14A0603D00446FFF7FCFB88
:1055B0002046FFF74FFA0020B0BD00BF01F00F02F8
:1055C00002EB8202802900EB82022CBF9269D2F8A2
:1055D0005821002AD9D001F07F0202EB820200EBB1
:1055E000820202F1140401EB810200EB82028029A5
:1055F00038BF02F5AA744A0614D00546FFF7E4FC4A
:1056000001462846002918BF01210CE009064FF089
:1056100014024FF0000358BF4FF4AA728118835050
:1056200003E000BF0021216021460222FFF704FAB7
:105630000020B0BDB0B50A7812F0600218BF402A51
:1056400016D190F89C22013A022A13D88A8812F0C7
:10565000FE0F0FD1D0F8B422044692680D46904751
:10566000E988002908BF00280ED00020B0BD00BF87
:10567000202AE6D080210446FFF768FD204600215D
:10568000FFF764FD0020B0BD2046FFF7E3F90020DE
:10569000B0BD00007047000040F2A830C2F2000028
:1056A000704700002DE9F04191F800E00246CD7806
:1056B00030F82E0047F270674FEA4E03032D20EAC0
:1056C000070411D80020DFE805F00307100B00BF26
:1056D00044F4007409E000BF44F4806405E000BFB6
:1056E00044F4C06401E000BF012048F28007CFF617
:1056F000FF7744EA070622F8136032F8136040F699
:105700000F74264046EA0E06374322F813700F7BCB
:1057100048F2800C002F51D032F8134040F60F664B
:10572000344048F28006022D08BF06F580763443E7
:1057300022F81340B2F850400E8902EB0E173C4499
:1057400026F00106A4F80064B2F850604C89374492
:1057500024F00106A7F808644F7832F81310002FE0
:1057600056D0490409D532F8131040F60F77394066
:10577000614401F5804122F8131032F813104906F4
:1057800008D532F8131040F60F77394061444031A4
:1057900022F8131032F8131040F63F7739400CF11D
:1057A00020074F40012D08BF41EA0C0722F8137073
:1057B00032F8131043F60F7751E000BF4F78B2F87C
:1057C0005080CC884FEA0E16002F24F001074DD0F0
:1057D00091194144A1F8007432F81310490608D514
:1057E00032F8131040F60F7739406144403122F807
:1057F000131032F8131040F63F77012D01EA07012C
:105800002ED00CF12007794022F81310BDE8F0816A
:10581000490409D532F8131040F60F773940614436
:1058200001F5804122F8131032F81310490608D50B
:1058300032F8131040F60F7739406144403122F8B6
:10584000131032F8131043F60F7739400CF5405718
:10585000794022F8131032F8131040F63F773940A0
:1058600041EA0C0122F81310BDE8F081951905EB0F
:105870000804A4F80874B2F8504005F20C452E5BF9
:105880006FF39F262E5309693F290BD3CF06675B21
:105890004FEA51164FF0FF3808BF08EB511647EAA0
:1058A00086210EE061B101F001062F5B06EB51018C
:1058B00047EA8121295332F8131049040BD414E02C
:1058C000295B48F20006CFF6FF763143295332F8C0
:1058D0001310490409D532F8131040F60F74214013
:1058E000614401F5804122F81310BEF1000F0BD086
:1058F00032F8131043F60F7739400CF50057794012
:1059000022F81310BDE8F081118843F60F77394073
:105910000CF54057794022F81310BDE8F0810000E3
:1059200000207047B0B50C784B78097B024630F800
:1059300024004CF2800C4CF2800500294FEA44010F
:105940003AD0002B42D0400408D532F8110040F67E
:105950000F73184040EA0C0022F8110032F81100D1
:1059600043F60F7E400640F63F7009D532F81130FD
:1059700040F60F7423406344A3F57F5322F811309F
:1059800032F8113040F60F7423402B43ACF58045BC
:1059900022F8113032F811301840284322F8110053
:1059A00032F8110000EA0E006044A0F580430020A8
:1059B00022F81130B0BD00BFF3B1400640F63F7E83
:1059C000EED5ACF57F5540F60F70E3E7400408D5FF
:1059D00032F8110040F60F73184040EA0C0022F82C
:1059E000110032F81100ACF57F55400640F63F7EBD
:1059F00043F60F70BAD4C3E7400443F60F7ECFD509
:105A000040F60F70C6E70000002070470020704786
:105A100001460120A1F8400000220020A1F840200A
:105A2000A1F84420A1F85020704700000146B0F8CA
:105A3000400044F2FF0202400020A1F840207047DD
:105A4000002070470A7B0AB10020704780B50A78B1
:105A50004B7830F822C04FEA4202ABB15FEA4C63A8
:105A600048F2A00E09D530F812C040F60F7303EAD1
:105A70000C037344203320F81230C97801291BD05D
:105A800040F63F7111E000BF5FEA4C414BF2800EDF
:105A900009D530F8121040F60F731940714401F522
:105AA000805120F8121043F60F7130F8123019406F
:105AB00081EA0E0120F81210BDE8804000207047F6
:105AC00002460B78487832F823C040F63F71002830
:105AD00048F2900008BF43F60F71CFF6FF7008BF81
